S01700004763634170706C69636174696F6E312E737265635B
S11300000C9450000C946D000C946D000C946D00D5
S11300100C9433020C946D000C946D000C946D00E0
S11300200C946D000C946D000C946D000C946D0098
S11300300C946D000C946D000C946D000C946D0088
S11300400C946D000C946D000C946D000C946D0078
S11300500C946D000C946D000C946D000C946D0068
S11300600C946D000C946D0002020202F501F5017E
S113007004020402F701F701F901F901FB01FB0194
S1130080FD01FD01FF01FF019F02A702AF02B702BC
S1130090BF02C702CF02D702DF02E702EF02FE026D
S11300A011241FBECFEFD8E0DEBFCDBF11E0A0E02A
S11300B0B1E0E0E7FDE002C005900D92AE37B10774
S11300C0D9F721E0AEE7B1E001C01D92AB38B20729
S11300D0E1F70E9445010C94B6060C9400005E9A68
S11300E085E08A95F1F700005E980895CF93DF9339
S11300F0D82F662311F05C9A01C05C985D9884B196
S11301008F6084B9C5B1C07F8D2F82958F708C2B81
S113011085B90E946F00DF70DC2BD5B90E946F0097
S1130120CF60C5B9DF91CF910895882311F05C9A0F
S113013001C05C985D9A84B1807F84B95E9A85E041
S11301408A95F1F7000093B15E9885E08A95F1F7FE
S113015000005E9A85E08A95F1F7000023B12F70C4
S1130160892F8295807F5E98822B089580E00E947B
S113017095008823DCF385E18A95F1F7000080E09F
S11301800E9495000895CF93C82F0E94B60060E0A6
S11301908C2F0E947600CF910895611104C080587D
S11301A00E94C300089580540E94C300089581E012
S11301B00E94C300089582E00E94C3000895CF9373
S11301C0C82F0E94B600CA3049F4803410F080E091
S11301D001C080E480580E94C30004C061E08C2FF9
S11301E00E947600CF910895CF93DF93EC0121967E
S11301F0FC018081882329F00E94DF00899181110C
S1130200FBCFDF91CF910895CF93C82F84B18F6036
S113021084B9549A559A569A8FEF99EF0197F1F74A
S113022000C00000299A289A0E946F008FE19EE482
S11302300197F1F700C000000E946F008FEF90E07B
S11302400197F1F700C000000E946F008FEF90E06B
S11302500197F1F700C0000028980E946F008FEF0B
S113026090E00197F1F700C0000088E20E94C3000B
S113027088E00E94C3000E94D70086E00E94C30069
S11302808C2F0E94C300CF9108958EE00E94040138
S11302900E9470020E9406028FE00E9474020E9473
S11302A0150278940E940D03FDCF1F93CF93DF9323
S11302B0182FD62FC42F0E94590382E20E9466038E
S11302C0812F0E9466038D2F0E9466038C2F0E944B
S11302D066030E946203DF91CF911F910895CF922C
S11302E0DF92FF920F931F93CF93DF93CDB7DEB7C7
S11302F060970FB6F894DEBF0FBECDBF0F2EFAE99C
S1130300FF2EF02DF80E0F2D10E0C8018A599C4FD6
S11303106AE070E00E9471039F938F937F936F93C1
S113032082E091E09F938F93CE0101966C019F939D
S11303308F930E94CC030E94D7000E94DB00C60169
S11303400E94F40061E080E00E94CD000024169534
S113035007950794169507950794102F002D40E1F3
S1130360400F6F2D6695669583E00E9455010FB688
S1130370F894DEBF0FBECDBF60960FB6F894DEBF13
S11303800FBECDBFDF91CF911F910F91FF90DF90F2
S1130390CF9008950E944D0343E060EC82E00E94F8
S11303A055014DE060ED82E00E94550108958031D1
S11303B008F08FE0482F68E885E00E945501089511
S11303C04DE060E082E00E94550108954DE060ED4B
S11303D082E00E945501089502978031910588F4C6
S11303E08C5C9F4FFC010C94850383E008958FE09F
S11303F008958FE108958FE308958FE708958FEFAF
S11304000895089581E0089587E008950E94CA013F
S113041088E080938A010E94D7018CE80E946F01D2
S11304208CE091E00E94F4000895E8E6F0E0808119
S113043082608083ECE6F0E080818260808388E0E3
S113044090E09093C5008093C400E1ECF0E08081DB
S1130450806180830895E0ECF0E080818823ECF7EC
S11304608091C60008951F920F920FB60F92112427
S11304702F933F934F935F936F937F938F939F93A8
S1130480AF93BF93EF93FF93F894319B17C0809180
S1130490880190918901009749F40E94E60181E066
S11304A090E0909389018093880108C0019731F40A
S11304B00E94E00110928901109288017894FF91C2
S11304C0EF91BF91AF919F918F917F916F915F91C8
S11304D04F913F912F910F900FBE0F901F90189541
S11304E087B18D6087B9089528E04098429898B103
S11304F0382F3170932B98B98695EFE9FFE0319747
S1130500F1F700C00000429AEFE9FFE03197F1F7FC
S113051000C00000215049F7439A8FE99FE00197FA
S1130520F1F700C000004398089501978C309105BD
S113053008F072C08C5B9F4FFC010C9485038AE722
S11305400E946F0185E191E00E94F40008958CE817
S11305500E946F018CE091E00E94F400089587ED01
S11305600E946F018EE191E00E94F40008958DE1F4
S11305700E946F018CE291E00E94F400089581ECE6
S11305800E946F018BE391E00E94F40008958BE2D6
S11305900E946F0183E491E00E94F40008958BEFC0
S11305A00E946F0183E591E00E94F40008958EEEAD
S11305B00E946F018FE591E00E94F400089588E1A4
S11305C00E946F0187E691E00E94F40008958AE09A
S11305D00E946F0185E791E00E94F40008958091E4
S11305E08A01815080938A010E94D70180918A01F7
S11305F090E00E94EC010E947402089580918A01A7
S11306008F5F80938A010E94D70180918A0190E0D4
S11306100E94EC010E94740208950E942B0284320D
S113062099F02091860130918701F901E058FE4F3D
S113063080832F5F3F4F3093870120938601109270
S11306407F0110927E01089580917E0190917F0137
S1130650892B11F581E090E090937F0180937E01D6
S11306601092870110928601E0E8F1E001900020E9
S1130670E9F73197E058F140339730F480E891E09E
S11306800E949F030E94950245E050E060E071E003
S113069080E891E00E94BD03089587B1806387B923
S11306A01092B90080E38093B80084E08093BC008A
S11306B0089584EA8093BC00ECEBF0E08081882309
S11306C0ECF7089584E98093BC0008958093BB00FF
S11306D084E88093BC00ECEBF0E080818823ECF7A5
S11306E0089597FB072E16F4009407D077FD09D0E0
S11306F00E948B0307FC05D03EF4909581959F4F93
S11307000895709561957F4F0895EE0FFF1F059032
S1130710F491E02D0994AA1BBB1B51E107C0AA1F49
S1130720BB1FA617B70710F0A61BB70B881F991F8E
S11307305A95A9F780959095BC01CD010895FC01C7
S113074088279927E89421912032E9F3293010F081
S11307502E30C8F32B3241F02D3239F4689404C0A2
S11307600E94C403820F911D219120532A30C0F3AB
S11307701EF4909581959F4F0895DC0101C06D93FF
S113078041505040E0F708957AE0979F902D879F5D
S1130790802D910D11240895AEE0B0E0E2EDF3E078
S11307A00C948D060D891E8986E08C831A83098337
S11307B08FEF9FE79E838D83AE01475E5F4F6F8906
S11307C0788DCE0101960E94EE03EF81F885E00F4B
S11307D0F11F10822E96E4E00C94A906ABE0B0E081
S11307E0E4EFF3E00C947F066C017B018A01FC01C9
S11307F017821682838181FFCCC1CE0101963C0110
S1130800F6019381F70193FD859193FF81917F0117
S1130810882309F4BAC1853239F493FD859193FF95
S113082081917F01853229F4B60190E00E94E505AB
S1130830E7CF912C212C312CFFE1F315D8F08B322A
S113084079F038F4803279F08332A1F4232D2061D9
S11308501DC08D3261F0803369F4232D216016C0F0
S1130860832D8260382EE32DE4603E2E2AC0F32DC2
S1130870F8601DC037FC2DC020ED280F2A3040F051
S11308808E32B9F436FC81C1232D2064322E19C076
S113089036FE06C08AE0989E200D1124922E11C0C7
S11308A0EAE02E9E200D1124222EF32DF0623F2E1D
S11308B008C08C3621F4832D8068382E02C0883617
S11308C041F4F70193FD859193FF81917F0181119B
S11308D0B3CF982F9F7D9554933028F40C5F1F4F0E
S11308E09FE399830DC0833631F0833771F08335EC
S11308F009F059C021C0F801808189830E5F1F4F20
S113090088248394912C530113C02801F2E04F0EE4
S1130910511CF801A080B18036FE03C0692D70E03F
S113092002C06FEF7FEFC5010E94DA054C0182011E
S1130930F32DFF773F2E16C0280122E0420E511CF2
S1130940F801A080B18036FE03C0692D70E002C0BA
S11309506FEF7FEFC5010E94CF054C01F32DF068C6
S11309603F2E820133FC1BC0822D90E0881699062D
S1130970B0F4B60180E290E00E94E5052A94F4CF39
S1130980F50137FC859137FE81915F01B60190E056
S11309900E94E50521102A9421E0821A910881140D
S11309A0910471F7E8C0843611F0893641F5F801F5
S11309B037FE07C060817181828193810C5F1F4F74
S11309C008C060817181072E000C880B990B0E5FA3
S11309D01F4FF32DFF763F2E97FF09C0909580950A
S11309E0709561957F4F8F4F9F4FF0683F2E2AE09F
S11309F030E0A3010E942106882E861845C0853761
S1130A0031F4232D2F7EB22E2AE030E025C0932D21
S1130A10997FB92E8F36C1F018F4883579F0B5C0B6
S1130A20803719F0883721F0B0C0E92FE061BE2E7D
S1130A30B4FE0DC0FB2DF460BF2E09C034FE0AC005
S1130A40292F2660B22E06C028E030E005C020E140
S1130A5030E002C020E132E0F801B7FE07C0608157
S1130A607181828193810C5F1F4F06C06081718107
S1130A7080E090E00E5F1F4FA3010E942106882EA4
S1130A808618FB2DFF773F2E36FE0DC0232D2E7FBB
S1130A90A22E891458F434FE0BC032FC09C0832DF5
S1130AA08E7EA82E05C0B82CA32C03C0B82C01C080
S1130AB0B92CA4FE0FC0FE01E80DF11D8081803326
S1130AC021F49A2D997EA92E09C0A2FE06C0B394E2
S1130AD0B39404C08A2D867809F0B394A3FC11C0A2
S1130AE0A0FE06C0B21488F4280C922C9B180EC0E9
S1130AF0B21460F4B60180E290E00E94E505B3947C
S1130B00F7CFB21418F42B1802C0982C212CA4FE91
S1130B1010C0B60180E390E00E94E505A2FE17C074
S1130B20A1FC03C088E790E002C088E590E0B6012C
S1130B300CC08A2D867859F0A1FE02C08BE201C058
S1130B4080E2A7FC8DE2B60190E00E94E5058914DD
S1130B5038F4B60180E390E00E94E5059A94F7CF5B
S1130B608A94F301E80DF11D8081B60190E00E94A2
S1130B70E5058110F5CF222009F442CEB60180E2CA
S1130B8090E00E94E5052A94F6CFF60186819781CC
S1130B9002C08FEF9FEF2B96E2E10C949B06FC01C1
S1130BA00590615070400110D8F7809590958E0F94
S1130BB09F1F0895FC016150704001900110D8F707
S1130BC0809590958E0F9F1F08950F931F93CF9339
S1130BD0DF93FB01238121FD03C08FEF9FEF2CC026
S1130BE022FF16C04681578124813581421753075D
S1130BF044F4A081B1819D012F5F3F4F3183208355
S1130C008C93268137812F5F3F4F3783268314C00F
S1130C108B01EC01FB010084F185E02D0995892B02
S1130C20E1F6D80116968D919C9117970196179627
S1130C309C938E931697CE01DF91CF911F910F91C4
S1130C400895FA01AA27283051F1203181F1E8945E
S1130C506F936E7F6E5F7F4F8F4F9F4FAF4FB1E0AB
S1130C603ED0B4E03CD0670F781F891F9A1FA11DA6
S1130C70680F791F8A1F911DA11D6A0F711D811DA7
S1130C80911DA11D20D009F468943F912AE0269F6C
S1130C9011243019305D3193DEF6CF010895462FCB
S1130CA04770405D4193B3E00FD0C9F7F6CF462FAC
S1130CB04F70405D4A3318F0495D31FD4052419315
S1130CC002D0A9F7EACFB4E0A695979587957795D2
S1130CD06795BA95C9F700976105710508959B0159
S1130CE0AC010A2E06945795479537952795BA95E2
S1130CF0C9F7620F731F841F951FA01D08952F92BB
S1130D003F924F925F926F927F928F929F92AF9297
S1130D10BF92CF92DF92EF92FF920F931F93CF93E4
S1130D20DF93CDB7DEB7CA1BDB0B0FB6F894DEBF7B
S1130D300FBECDBF09942A88398848885F846E84A1
S1130D407D848C849B84AA84B984C884DF80EE80EB
S1130D50FD800C811B81AA81B981CE0FD11D0FB6F4
S1130D60F894DEBF0FBECDBFED010895F894FFCF18
S1130D70000025642E2564204D487A004D61676982
S1130D806320464D00526164696F205A55005261D8
S1130D9064696F20526F6D616E696100522E20414B
S1130DA0637475616C6974617469004B6973732051
S1130DB0464D00526164696F204575726F70612001
S1130DC0464D00526F6D616E74696320464D00524A
S1130DD06F636B20464D00526164696F204D757AD4
S1110DE06963616C00526164696F2037000022
S9030000FC
