:100000000C9434000C9449000C9449000C94490061
:100010000C9449000C9449000C9449000C9449003C
:100020000C9449000C9449000C9449000C9449002C
:100030000C9449000C9449000C9449000C9449001C
:100040000C9449000C9449000C9449000C9449000C
:100050000C9449000C9449000C9449000C944900FC
:100060000C9449000C94490011241FBECFEFD8E036
:10007000DEBFCDBF11E0A0E0B1E0ECE3F2E002C0F2
:1000800005900D92AC31B107D9F70E94F7000C949E
:100090001C010C9400005E9A00005E980895CF93B6
:1000A000DF93D82F662311F05C9A01C05C985D98AD
:1000B0008AB18F608AB9CBB1C07F8D2F82958F7046
:1000C0008C2B8BB90E944B00DF70DC2BDBB90E94BC
:1000D0004B00CF60CBB9DF91CF9108955C985D9ACA
:1000E0008AB1807F8AB95E9A000099B15E9800005B
:1000F0005E9A000029B12F70892F8295807F5E98CB
:10010000822B08950E946E0087FDFCCF00C000C0C6
:100110000C946E00CF93C82F0E94820060E08C2F59
:10012000CF910C944F00611102C0805801C08054DF
:100130000C948A0081E00C948A0082E00C948A007E
:10014000CF93C82F0E948200CA3049F4803410F047
:1001500080E001C080E48058CF910C948A0061E077
:100160008C2FCF910C944F00CF93DF93EC018991AA
:10017000882319F00E94A000FACFDF91CF91089553
:10018000CF93C82F8AB18F678AB98FE99FE0019713
:10019000F1F700C00000599A589A0E944B0081EE76
:1001A00094E00197F1F700C000000E944B0095E138
:1001B0009A95F1F700000E944B0085E18A95F1F7CE
:1001C000000058980E944B0095E19A95F1F70000C5
:1001D00088E20E948A0088E00E948A000E949A00B9
:1001E00086E00E948A008C2FCF910C948A008EE0CA
:1001F0000E94C0000E949A000E949D0080E091E051
:100200000E94B40061E080E00E94930086E091E0EB
:100210000E94B4002FEF84E39CE021508040904086
:10022000E1F700C000000E949A000E949D0082E158
:0C02300091E00E94B400FFCFF894FFCFD3
:10023C0068656C6C6F006D6178456D6265646465B2
:0C024C006400436520666163693F0000A8
:00000001FF
